:020000040800F2
:100000001009002035020008D72F0008CD2E000867
:10001000D52F0008431B0008A13300080000000092
:10002000000000000000000000000000DB2F0008BE
:10003000451B000800000000D92F0008DD2F000834
:100040004F0200084F0200084F0200084F0200084C
:100050004F0200084F0200084F0200084F0200083C
:100060004F0200084F0200084F0200084F0200082C
:100070004F0200084F0200084F0200084F0200081C
:100080004F0200084F0200084F0200084F0200080C
:100090004F0200084F0200084F0200084F020008FC
:1000A0004F0200084F0200084F0200084F020008EC
:1000B000413000084F020008000000004F02000815
:1000C0004F02000800000000000000004F0200087E
:1000D00000000000953300084F02000800000000F7
:1000E0004F0200084F0200084F02000800F002F81B
:1000F00000F090F80AA090E8000C82448344AAF132
:100100000107DA4501D100F085F8AFF2090EBAE82F
:100110000F0013F0010F18BFFB1A43F0010318473B
:10012000DC3B0000FC3B0000103A24BF78C878C1DB
:10013000FAD8520724BF30C830C144BF04680C60ED
:10014000704700000023002400250026103A28BF35
:1001500078C1FBD8520728BF30C148BF0B60704739
:100160006E2900F06181702900F0A382662903F0F6
:100170003785652903F03485672903F031856129C6
:1001800003F0308503681B0A28BF41F0800169290C
:1001900000F00E81642900F00B81752900F00881C0
:1001A0006F2900F03082782900F06F82E92900F091
:1001B000CB81E42900F0C881F52900F0C581EF2941
:1001C00000F02D82F82900F06E820368DB0928BF59
:1001D00041F08001632900F07187732900F0768770
:1001E000E32900F08187F32900F08687002070471B
:1001F0001FB500F0D3FF04000020002103F0C8F970
:10020000401C60600020002103F0ACF9E0601FBDDD
:1002100010B510BD00F094FF1146FFF7E9FF03F0A1
:1002200043F901F071F803B4FFF7F2FF03BC01F0EA
:10023000B9F800000948804709480047FEE7FEE793
:10024000FEE7FEE7FEE7FEE7FEE7FEE7FEE7FEE786
:1002500004480549054A064B704700003F30000836
:10026000ED000008100300201009002010050020F8
:10027000100500201CB50C46064B7B4469460090D7
:10028000204600F0EAF804460020694600F0F8F83D
:1002900020461CBD030200004FF0000200B51346CB
:1002A00094469646203922BFA0E80C50A0E80C5096
:1002B000B1F12001BFF4F7AF090728BFA0E80C5047
:1002C00048BF0CC05DF804EB890028BF40F8042B40
:1002D00008BF704748BF20F8022B11F0804F18BFAD
:1002E00000F8012B704770477047704770B504469F
:1002F00085690068C10601D5302600E02026C007C8
:1003000007D070BDD4E9012130469047206A401CD7
:1003100020626D1EF6D570BD70B504468569007803
:10032000C00707D170BDD4E9012120209047206A81
:10033000401C20626D1EF6D570BD09684A0501D5C6
:1003400040B27047C905FCD500B2704709684A053C
:1003500001D5C0B27047C905FCD580B2704770B5F1
:100360000C460546012A05D02878800600D5EA69A2
:10037000002302E0012305E05B1C934202D2E05C13
:100380000028F9D1A869E618C01AA861286A18449B
:1003900028622846FFF7AAFF04E0D5E9012114F8F6
:1003A000010B9047B442F8D32846FFF7B5FF70BD64
:1003B0002DE9F0410646002410687529314616A53E
:1003C00010D0FFF7BAFF002802DA404213A507E079
:1003D00031688A0701D512A502E0490704D511A5A5
:1003E000012401E0FFF7B2FF00210A2206F12407F1
:1003F00009E0B0FBF2FCB0FBF2F302FB1C00303072
:1004000078541846491C0028F3D123462A46304622
:10041000BDE8F04100F061BA000000002D000000CE
:100420002B0000002000000011680268006A5305DC
:1004300001D508700AE0D30501D5088006E013064F
:1004400003D5C217C1E9000200E00860012070472F
:1004500001694A1C02610878704700B58FB0CDE988
:1004600001310021059105497944CDE90310114678
:10047000684600F029F90FB000BD0000E5FFFFFF5E
:100480000A6802F8010B0A60704700002DE9FF5F5F
:1004900015468A460446DFF8AC80F8440027D8E9C0
:1004A00000103E46CDE9001010E03AF816106A46FA
:1004B00002A800F025FE411C07D02178890603D54B
:1004C000E269391891420DD80744761C20788006DD
:1004D00002D5E069B84205DDAE42E6DB3AF8160027
:1004E0000028E2D1A069C01BA0612046FFF7FEFEF4
:1004F000D8E90010CDE90010002017E03AF81810F4
:100500006A4602A800F0FCFDB0F1FF3F81460BD027
:1005100000250DF1080B05E0D4E901211BF80500C9
:1005200090476D1C4D45F7D308F10100B04280465D
:10053000E4DB206A384420622046FFF7EDFEBDE888
:10054000FF9F0000623700002DE9F0418046D21D78
:1005500022F007020025D2E90002F52915A614D0E1
:10056000011E72F1000106DA0023D0EB030063EBF9
:10057000020211A608E0D8F800108B0701D50FA6DB
:1005800002E0490701D50EA601251146002408F115
:10059000240704E000F05CF930323A55641C50EA5C
:1005A0000102F7D12B46324621464046BDE8F041D4
:1005B00000F093B9000000002D0000002B000000A7
:1005C0002000000030B4002100F1240408E002F013
:1005D0000705D208303542EA4372DB086554491CEE
:1005E00052EA0305F3D10468002310A2250707D5BA
:1005F000A40600D421B1C46901230DA2641EC46104
:1006000030BC00F06AB910B5044621461068FFF707
:100610009DFE02462046BDE810400023D2E7D21DD1
:1006200022F00701D1E90023CCE700000000000020
:1006300030000000F0B40D460188090502D5214CB8
:100640007C4402E01F4C7C440E34002100F124065F
:1006500008E002F00F071209E75D42EA03721B0986
:100660007754491C52EA0307F3D10278002312079A
:1006700004D5702D06D009B1022311342246F0BCF6
:1006800000F02BB901231034F8E770B504460D468D
:1006900021461068FFF75AFE024629462046BDE86B
:1006A00070400023C6E7D21D22F00703D3E90023E0
:1006B000C0E70368126843F0200303600823C361A6
:1006C0000023B7E7C43500002DE9F05F89460446F2
:1006D0004FF0000ADFF874B1FB44C0F820A02046B8
:1006E000E1688847002874D0252806D0D4E9012184
:1006F0009047206A401C2062F1E700265F462046B2
:10070000E16888472028054607DB312D05D2781996
:1007100010F8200C08B10643F1E7B00701D526F028
:100720000406C4F81CA00027C4F818A02A2D09D07C
:10073000284602F05AFE38B304EB8708303DC8F86B
:10074000185019E059F8041B204604EB8702916108
:10075000E1688847012F054618D1E069002820DAB2
:1007600026F020061DE0D8F8180000EB800005EB0D
:1007700040003038C8F818002046E1688847054630
:1007800002F033FE0028EED1012F0AD02E2D08D121
:100790002046E16888477F1C0546022F46F0200668
:1007A000C4DBA069002803DA404246F00106A061DC
:1007B000F00701D026F010066C2D0BD0682D09D063
:1007C0004C2D39D06A2D35D0742D35D07A2D33D0BB
:1007D00016E038E0E1682F4620468847B8420546D3
:1007E00009D16C2F26D04FF48060E1680643204683
:1007F0008847054604E06C2F1AD04FF480700643FA
:100800000DB3A5F14100192802D8203546F4006641
:100810004A462946204626604E46FFF7A1FC80B195
:1008200001280BD0F61D26F0070000F1080956E755
:100830004020E4E78020D8E70020D6E706F104094D
:100840004DE7284652E7206ABDE8F09F5435000086
:1008500030B5B0F10A024FEA900E71F100034EEA92
:10086000817EB0EB0E0061EB91014FEA101E4EEA63
:10087000017E10EB0E0041EB11114FEA102E4EEAF3
:10088000016E10EB0E0041EB11214FEA104E4EEAC3
:10089000014E10EB0E0041EB1141401841F10001F7
:1008A0004FEAD00040EA41704FEAD10110EB8005D9
:1008B0004FEA810444EA907444EB01046D1944EB5F
:1008C0000404521BA3414FF0000348BF0A3200D575
:1008D00030BD401C41F1000130BD2DE9F0470D460F
:1008E00099469246044600F124080168880604D51A
:1008F000E06921F01001216000E00120A84201DD43
:10090000471B00E00027A1697A1902EB0900081AC9
:10091000A0612078C00602D42046FFF7E7FC00263D
:1009200008E0D4E901211AF806009047206A401C2B
:10093000761C20624E45F4DB2078C0060AD520469E
:10094000FFF7D4FC06E0D4E9012130209047206A6B
:10095000401C2062381EA7F10107F4DC07E0D4E94F
:10096000012118F805009047206A401C2062281ECB
:10097000A5F10105F3DC2046FFF7CEFC2078000648
:1009800002D50220BDE8F0870120FBE770472DE982
:10099000FF4F0C461E464FF0FF378BB0D2E90001E7
:1009A000DDF860800A908A46C1F30A5505B93D46D4
:1009B000002108464FF00000BAF1000F00F440009B
:1009C00005DA00EB80004FF4400101EA50004FEAE5
:1009D0009059B9F1010F00DDB9460A9850EA4A0072
:1009E0000ED044F61050A5F2FF3545432F14B8F150
:1009F000000F1ED07542291E1EDDC9F100021CE049
:100A0000B8F1010F4FF0000001D0302103E0F243B4
:100A100005E02154401CB042FBDB3046002200219F
:100A200021540B99C1F80880C1E900200FB0BDE83E
:100A3000F08FBD1B6D1CDEE74A4600DA694206A84E
:100A400000F0F0FB06AB93E8070003AB83E8070078
:100A500050460A9900F0ADFC8DE80700A0F5005063
:100A60001F3800900398002D0ADD42F21F014A460C
:100A70000844002303A90390684600F016FF09E02C
:100A8000A0F500504A461F38002303A9039068468A
:100A900000F020FF8DE807000004000C03D04FF0A9
:100AA000FF30410800E01046B8F1000F03D00022EB
:100AB000009215461EE0751E05D4FFF7C9FE3032C0
:100AC00062556D1EF9D5B3460122084302D00022BB
:100AD0007F1C04E02078302801D100227F1E002AEC
:100AE000099784D01DE0112D07DAFFF7B1FE3032EF
:100AF00062556D1C50EA0102F5D1084302D00098FE
:100B0000C8B10EE00021681E05E0235C625C6354FE
:100B10002254401E491C8142F7DBAB46A81B401EF5
:100B20000990002004F80B000B98099AC0F808807F
:100B3000C0E9002B7AE711264FF0000857E72DE9AE
:100B4000F04F88460446D21D22F0070191B0D1E94A
:100B50000001CDE90A0102F024FC02460B98C00F07
:100B600001D02D2007E02068810701D52B2002E06D
:100B7000202101EAC000032A099001D0072A05DBE1
:100B800003464146204600F00DFB0BE1207880062D
:100B900001D5E06900E00620B8F1650F814606D076
:100BA000B8F1660F18D0B8F1670F70D131E00020AE
:100BB000B9F1110F009001DB112301E009F10103EC
:100BC0000AAA01A90CA8FFF7E2FEDDE90C700026D5
:100BD00009F10105834647E001204B4600904FF0A4
:100BE00000470AAA01A90CA8FFF7D1FEDDE90DB064
:100BF0000C995D46002610B909F101000D18B9EBFA
:100C0000050003D4C0F1FF3609F10105A5EB090089
:100C10002BE0B9F1010F01DA4FF001090020B9F121
:100C2000110F0090484601DD112300E003460AAA97
:100C300001A90CA8FFF7ABFEDDE90C704D460026BC
:100C40008346207800070AD4AB4500DA5D4601A848
:100C5000012D04DD411911F8011C302907D04F4541
:100C600002DA17F1040F04DA012082460FE06D1E4C
:100C7000EEE7002F02DCED1B3E4403E0781CA842A7
:100C800000DD7D1CB81B00F1010A4FF00047207801
:100C9000000703D4AA4501DB4FF0FF3A0021B7F16A
:100CA000004F0DF143088DF8431024D002202B2370
:100CB000002F01DA7F422D230A21021EA0F101003C
:100CC00000DC5FB197FBF1FC97FBF1F201FB1C7CB0
:100CD00017460CF1300C08F801CDEEE7A8F1010041
:100CE00003702188090501D5452100E06521A0F1A7
:100CF000010800F8011C09980FA9A1EB0807FF1DC6
:100D000000B10120411901EBEA70A1693844081AC9
:100D1000401EA0612078C00602D42046FFF7E6FA04
:100D2000099828B1D4E901219047206A401C20622B
:100D30002078C00622D52046FFF7D8FA1EE0002E04
:100D400004DBB34502DD01A8805D00E03020D4E97A
:100D500001219047206A401C2062761CAAF1010004
:100D60005FEA000A0AD100F019FAC0680168405C25
:100D7000D4E901219047206A401C2062281EA5F179
:100D80000105DCDC07E0D4E9012118F8010B9047EC
:100D9000206A401C2062381EA7F10107F3DC2046C0
:100DA000FFF7BAFA032011B041E600002DE9F04F39
:100DB00004460D46D21D22F0070089B0D0E9009705
:100DC0004846394602F0EDFA0246F80F01D02D23CD
:100DD00007E02068810701D52B2302E0202101EAEA
:100DE000C0038DF820300BB1012000E00020032A61
:100DF000824601D0072A04DB2946204600F0D2F9BA
:100E00003FE12078800601D40D2500E0E569C7F3B5
:100E10000A560D2D49DA00214FEA175B08464FF0BC
:100E20000000002F00F4400007DA00EB80004FF4D0
:100E3000400100EBD07001EA60008115012901DD5D
:100E40004FF0FF3100224FEA850CBCF1180F06D39A
:100E50001346ACF118004FF08052C24003E04FF44B
:100E6000801323FA0CF30CF10C0CBCF1200F04D30B
:100E7000ACF1200C09FA0CF001E007FA0CF00029A3
:100E80004FF0004801DD18B90FE00ED140450CD3FA
:100E900019EB02095F4121B9404502D19F4329EA7C
:100EA0000209BBEB175F00D0761C2088000502D535
:100EB0007B48784402E07A487844193808AA3023FD
:100EC00002F80A30037C0AF10101002E0AF1020A3D
:100ED00053546A4602DC4FF0300101E04FF031011B
:100EE0004FF001088DF8001002D0A6F2FF3603E0A3
:100EF00059EA470100D06B4E002D02DC217809072A
:100F000004D54FF002082E218DF80110C4460021AF
:100F10000BE0C7F303433F01C35C491C6D1E02F89D
:100F20000830052908F1010801DA002DF1DC002163
:100F30000CE000EB1973491C1B786D1E082902F8A0
:100F400008304FEA091908F1010801DA002DF0DC38
:100F500021688B0602D516E0A8F10108E04505DD01
:100F600002EB080313F8013C302BF5D0B8F1000F69
:100F700009DD02EB080313F8013C2E2B03D109070E
:100F800001D4A8F10108002D05DD3E2102F808106A
:100F90006D1E08F10108407C002E02F8080008F1DF
:100FA000010804DA2D20764202F8080002E02B2026
:100FB00002F808000A214FF47A70864208F101080D
:100FC0000BDB96FBF0F3303302F8083096FBF0F3BE
:100FD00008F1010800FB136601E0642E0CDB6420BD
:100FE00096FBF0F3303302F8083096FBF0F308F18B
:100FF000010800FB136601E00A2E06DB96FBF1F008
:10100000303002F8080008F1010896FBF1F001FB0E
:101010001060303002F80800A16908F1010808EBFF
:10102000050202EB0A00081AA0612078C00602D46B
:101030002046FFF75BF9216A08AE01EB0A00206247
:1010400004E0D4E9012116F8010B9047BAF1010A36
:10105000F7D22078C00602D52046FFF747F96E4642
:1010600009E016F8010B3E280FD0D4E90121904782
:10107000206A401C2062B8F10108F2D22046FFF736
:101080004BF909B00320BDE8F08F206A28442062A4
:1010900003E0D4E90121302090476D1EEBD3F8E73F
:1010A0009E2D000002FCFFFF10B5436913B1AFF3A2
:1010B000008001E0FFF753F9012010BD127800F124
:1010C00024010A7000224A700122EDE711684FF0F6
:1010D000FF32E9E710B5436913B1AFF3008001E0D7
:1010E000FFF7D4F9012010BD128800F12401828499
:1010F0000022C2840122EDE711684FF0FF32E9E7D8
:1011000070B516460C46054600F040F8036893F8A3
:101110000101012806D0FF2C0FD8185D68B101200D
:101120002C7070BDD3F807013246214603F2071335
:1011300003442846BDE8704018474FF0FF3070BDAB
:10114000754600F0EBF8AE4605006946534620F0C0
:101150000700854618B020B5FFF77AF8BDE82040B3
:101160004FF000064FF000074FF000084FF0000B63
:1011700021F00701AC46ACE8C009ACE8C009ACE816
:10118000C009ACE8C0098D467047000010B500F0FA
:1011900005F8001D10BD00BFF9230000004870478E
:1011A000D00200202DE9F0411F46044603260168C5
:1011B000072A01F4006004DB08B116A505E016A5B6
:1011C00003E008B115A500E015A521F0100020608E
:1011D000A069C01EA0610FB1401EA0612046FFF7AC
:1011E00085F84FB1D4E9012138469047206A401C68
:1011F0002062C01C206206E0206AFAE7D4E90121DF
:1012000015F8010B9047761EF8D22046FFF784F8B8
:10121000BDE8F0814E414E006E616E00494E4600C1
:10122000696E66002DE9F047814616468AB035485A
:1012300078440DC88DE80D0032487844801C03AC1A
:101240000DC884E80D0041F69B300844372190FB1F
:10125000F1F290FBF1F5A5F1800501FB12041B3CB6
:1012600002D56442012000E00020DFF898A080460B
:101270000027FA44AAF1BE0A0EE0E0070AD032467F
:10128000684607EB470101230AEB810100F022FBCE
:101290008DE8070064107F1C002CEED1194F7F44AD
:1012A000AE3F19E0E80715D007EB04100DF1180A5E
:1012B00090E80E008AE80E00C068F04201D198194B
:1012C00008903246012306A903A800F003FB03ABF4
:1012D00083E807006D10641C002DE3D14FF001037B
:1012E00032466946B8F1000F03A802D000F0DDFADB
:1012F00001E000F0EFFAC9E90001C9F808200AB0DE
:10130000BDE8F087B02A000010B50446AFF30080B6
:101310002046BDE81040FEF786BF00000048704739
:10132000B00200204FF0013C50F8042B51F8043B70
:101330009A4221D1A2EB0C03934313EACC1317D1A9
:1013400050F8042B51F8043B9A4215D1A2EB0C0340
:10135000934313EACC130BD150F8042B51F8043B00
:101360009A4209D1A2EB0C03934313EACC13DBD0CE
:101370004FF00000704700BFD01A01BAB1FA81F1F6
:1013800001F0180122FA01F0CB40C1F12001DBB2DB
:10139000C0B2C01A2CFA01F3D11A914311EAC31159
:1013A000E6D1704701491820ABBEFEE726000200D7
:1013B00070475FEA400C08BF91F0000F4FEA8C23A2
:1013C0004FEAC12243EA51514FEA1C5018BF00F5C1
:1013D000F0404FEA300018BF41F000415FEA6C5C1A
:1013E00000F02980BCF1FF3F08BF40F0804070470B
:1013F000130C06BF12044FF0100C4FF0000C130E2C
:1014000004BF12020CF1080C130F04BF12010CF1FF
:10141000040C930F04BF92000CF1020CD30F04BF15
:1014200052000CF1010C11464FF00002A0F11F0018
:10143000A0EB0C00704711F0004F08BF704731F06F
:1014400000413FF4D5AF0B0C06BF09044FF0100C60
:101450004FF0000C0B0E04BF09020CF1080C0B0F2F
:1014600004BF09010CF1040C8B0F04BF89000CF1BF
:10147000020CCB0F04BF49000CF1010CCCF120038E
:10148000A0EB0C0022FA03F302FA0CF241EA03018A
:1014900000F10100704720F07F4C80EA030023F048
:1014A0007F47ACEB070303F57C5300F0004003F1EA
:1014B000FF032DE980494FEA154B09B44FEA144365
:1014C00025EA0B4E24EA03480FF2042606EB132705
:1014D00049083E785FEA320203FB0667C7F500075A
:1014E00007FB06F64FEA54374FEAD64606F10206E6
:1014F00007FB066CCCF1005C4FEA1C472CEA074C5A
:1015000007FB06F40CFB06F504EB15464FEA9616AE
:1015100034BF00204FF000404FEAD13706FB07FCF4
:101520004FEA1C4C0CFB0BF7D21B03FB0CF761EBD7
:1015300007010CFB0EF7B0EB074072EB17420CFBF8
:1015400008F734BFA2EB0742B2EB074261EB174149
:101550004FEA0C444FEA910706FB07FC4FEA1C4C8C
:101560000CFB0BF7B0EBC74072EB573203FB0CF7E9
:1015700034BFA2EBC742B2EBC74261EB57310CFB61
:101580000EF7B0EBC70072EB57720CFB08F734BFD5
:10159000A2EBC702B2EBC70261EB5771039F4FEAA0
:1015A000816141EA921104EBCC044FEAD1374FEA52
:1015B000826206FB07FC42EA90124FEA80604FEA23
:1015C0001C4C0CFB0BF7D21B03FB0CF761EB070168
:1015D0000CFB0EF7B0EB074072EB17420CFB08F761
:1015E00034BFA2EB0742B2EB074261EB17414FEA6F
:1015F0008C554FEA910704EB9C2406FB07FC4FEA4D
:101600001C4C0CFB0BF7B0EBC74072EB573203FBE3
:101610000CF734BFA2EBC742B2EBC74261EB5731C4
:101620000CFB0EF7B0EBC70072EB57720CFB08F720
:1016300034BFA2EBC702B2EBC70261EB577115EBE7
:101640004C254FEA816141EA92114FEA82624FEAEA
:10165000D13742EA901206FB07FC44F100044FEA3E
:1016600080604FEA1C4C0CFB0BF7D21B03FB0CF702
:1016700061EB07010CFB0EF7B0EB074072EB174272
:101680000CFB08F734BFA2EB0742B2EB074261EB59
:10169000174115EB1C154FEA813141EA92414FEA9F
:1016A000823242EA90424FEA80304FEA0C7644F1AF
:1016B000000448EA03434EEA0B484FF0000EB2EB39
:1016C000080C71EB030724BF624639464EEB0E0E41
:1016D0004FF0000B0018524149414BEB0B0BB2EBA2
:1016E000080C71EB03077BF1000B24BF62463946FF
:1016F0004EEB0E0E4FF0000B0018524149414BEBE0
:101700000B0BB2EB080C71EB03077BF1000B24BF52
:10171000624639464EEB0E0E51EA020718BF46F0FC
:10172000010616EB0E7655F1000254F1000103D5C7
:10173000BDE88901BDE80088BDE88901BDE8004831
:10174000B619524141EB0101A3F1010370478080BA
:101750007F7E7D7C7B7A797877767675747372710B
:1017600071706F6E6E6D6C6C6B6A6A6968686766C3
:1017700066656464636362616160605F5F5E5E5D55
:101780005D5C5C5B5B5A5A595958585757565655C9
:1017900055555454535352525251515050504F4F2B
:1017A0004F4E4E4D4D4D4C4C4C4B4B4B4A4A4A497B
:1017B00049494848484747474746464645454544BE
:1017C0004444444343434342424242414141002B4B
:1017D0009C4630D477002BD01CB54FEA370703B4B2
:1017E0004FF010004FF01001BAF1000F06D0BCF11D
:1017F000000FDCBF40F0080040F008014FF000008F
:101800000FBCBDE810400BF1010BBBF1010F08BF8D
:101810005FEA170722BF12F1010211F101014FF037
:10182000004143F1000300F0004043EA000070472C
:10183000F9D35708D0E746EA064613F1400F4FEABE
:1018400016461FDD13F1200FDFBF16430A460021A5
:1018500020335B42BED0C3F1200746EA064602FAB7
:1018600007F74FEA164646EA0706C3F1200722FAB1
:1018700003F201FA07F721FA03F14FF0000342EAFD
:101880000702A7E746EA020646EA06464FEA164678
:1018900046EA0106BCBF46EA0646360C4FF0000396
:1018A0004FF000024FF0000194E72DE9804C9A467A
:1018B000934670B491E8380007C831EA400C48BF3D
:1018C00034EA430C03D5FFF7E6FDFFF780FFF0BCD9
:1018D000BDE8008C2DE9804C9A46934670B491E89F
:1018E000380007C810F0804F08BF13F0804F03D1B5
:1018F00000F005F8FFF76BFFF0BCBDE8008C20F0AE
:101900007F4780EA030023F07F4C07EB0C03A3F52D
:101910007C5300F00040A3F1FE0392F0000F00F0B2
:10192000B38095F0000F00F077802DE901494FEA70
:1019300011404FEA144621EA004800FB06FC24EA65
:10194000064708FB06F607FB08F800FB07F718EB4D
:1019500006484CEB164C4FEA124B18EB07484FEA7F
:1019600015464CEB174022EA0B4E0BFB06FC25EA12
:1019700006470EFB06F607FB0EFE0BFB07F71EEBFA
:10198000064E4CEB164C4FF000061EEB074E4CEB90
:10199000174B18EB0B0840F1000018EB0E0B58EB3F
:1019A000000840F100008F1A4FF000013CBFC9430E
:1019B000661B14BFB5EB040C00213CBFC943F61BEA
:1019C0004FEA17444EEA8E0E27EA04454FEA1C47B9
:1019D00004FB07622CEA074C05FB07F70CFB05F636
:1019E00004FB0CFC16EB074642EB174216EB0C46C9
:1019F00042EB1C421BEB060658EB0202414146EA51
:101A00009E0601D5BDE80189B619524141EB01019D
:101A1000A3F10103BDE801894FEA14454FEA1147DC
:101A200024EA054621EA074C05FB07F406FB07F705
:101A30000CFB06F105FB0CFC11EB074144EB1744D2
:101A40004FEA124711EB0C4144EB1C4422EA074CCD
:101A500005FB07F206FB07F70CFB06F605FB0CFC83
:101A600016EB074642EB174216EB0C4642EB1C45C1
:101A70006A1854F1000148BF7047B619524141EB52
:101A80000101A3F10103704795F0000F37D04FEA31
:101A900011424FEA144721EA024624EA074C02FBAE
:101AA00007F106FB07F70CFB06F402FB0CFC14EB3A
:101AB000074441EB17414FEA154714EB0C4441EB47
:101AC0001C4125EA074C02FB07F506FB07F70CFB58
:101AD00006F602FB0CFC16EB074645EB174516EB2A
:101AE0000C4645EB1C42121951F1000148BF7047EA
:101AF000B619524141EB0101A3F1010370474FEACE
:101B000014454FEA114724EA054621EA074C05FB34
:101B100007F106FB07F70CFB06F24FF0000605FB8A
:101B20000CFC12EB074241EB174112EB0C4251EB5C
:101B30001C4148BF7047921841EB0101A3F101031A
:101B40007047FEE7704772B6FEE710B590F82110B7
:101B50000022022905D00421816380F82020012081
:101B600010BD01680B6823F00E030B6001680B6861
:101B700023F001030B6090F84030C46B012101FA9F
:101B800003F3636080F8211080F82020104610BD18
:101B900010B590F821100024022903D0042181639C
:101BA00001243DE001680A6822F00E020A60016823
:101BB0000A6822F001020A601A4A0168914201D1C2
:101BC000012121E0174A1432914201D110211BE07A
:101BD000144A2832914201D1891515E0114A3C324C
:101BE000914201D189140FE00E4A5032914202D144
:101BF0004FF4803108E00B4A6432914202D14FF435
:101C0000801101E04FF08071064A083A51600121CD
:101C100080F82110002180F82010416B01B1884725
:101C2000204610BD0800024070B5044600F0F4F8EC
:101C30000546601C02D004480078044400F0ECF82B
:101C4000401BA042FAD370BD080000202DE9F84FD8
:101C5000DFF89C91002409F1040A0AF1040B2346E1
:101C60000F270BF1040EBBE00125A5402A40AA4234
:101C700076D1DFF880C14E68A6EB0C0866452BD004
:101C80000DDC032E34D005DC36B3012E19D0022E24
:101C90002FD11BE0112E16D0122E2AD119E0B8F543
:101CA000881F19D006DCB8F5803F15D0B8F5801F25
:101CB0001FD111E0B8F5001F0ED0B8F5041F18D1E0
:101CC0000AE0CB6815E0CB681B1D12E0CB68083337
:101CD0000FE0CB680C330CE08B682BB1012B4FF07D
:101CE000080303D0456104E0042302E0056100E03D
:101CF0000023FF2A01D8064601E000F104064FEA5E
:101D0000840501D9A5F12005D6F8008007FA05FC65
:101D100028EA0C0803FA05F548EA0508C6F8008029
:101D20004D68ED005BD5344DAE6946F00106AE61FD
:101D3000AD6924F0030605F0010500952F4D06EB73
:101D4000050CDCF80850A607360F07FA06F825EA56
:101D50000805DFF8AC80404503D14FF0000810E0E3
:101D60003DE0DFF8A080404502D14FF0010808E0D7
:101D7000DFF89480404502D14FF0020801E04FF0B7
:101D8000030808FA06F848EA0508CCF808804D6808
:101D9000D9F80060ED034D4601D5164300E09643A7
:101DA0002E604D68DAF80060AD03554601D5164344
:101DB00000E096432E604D68DBF80060ED025D4662
:101DC00001D5164300E096432E604D68DEF80060B2
:101DD000AD02754601D5164300E096432E60641CA3
:101DE0000A6832FA04F57FF43FAFBDE8F88F0000CF
:101DF00000040140000011100010024000000140EA
:101E000000080140000C0140001001400AB10161CE
:101E100070470904FBE70000014880687047000034
:101E200008000020024881680278114481607047F0
:101E300008000020074810B5016841F0100101605A
:101E4000032000F075F80F2000F006F800F024F8E9
:101E5000002010BD0020024070B50D4D04464FF427
:101E60007A712878B1FBF0F00A490968B1FBF0F00B
:101E700000F0ECFA48B9102C07D200222146501E7F
:101E800000F036F800206C6070BD012070BD0000CD
:101E900008000020140000200C4808B5816941F0BA
:101EA00001018161816901F001010091C16941F085
:101EB0008051C161C06900F08050009004484168C1
:101EC00021F0E06141F00071416008BD0010024066
:101ED00000000140002809DB00F01F0201219140B1
:101EE0004009800000F1E020C0F8001170470000B8
:101EF000F0B40E4B1B680C46C3F30223C3F1070575
:101F0000042D00D90425191D072901D2002300E062
:101F1000DB1E012606FA05F1491E214099409E402C
:101F2000761E16403143F0BC01F04FBA0CED00E0D4
:101F3000064900F0070208684FF6FF03184040EA20
:101F40000220034A10430860704700000CED00E0D7
:101F50000000FA052DE9F0470F46050061D0434E19
:101F6000306800F00700B84209D2306820F007005E
:101F700038433060306800F00700B84251D128681B
:101F80003B4C810712D5400703D5606840F4E06000
:101F900060602878000703D5606840F46050606096
:101FA0006068A96820F0F000084360602878C007E6
:101FB00028D06868012810D02168022810D089072D
:101FC00000292EDA616821F0030101436160FFF707
:101FD00023FF804641F288390DE021688903EFE74D
:101FE0008901EDE7FFF718FFA0EB0801494502D989
:101FF0000320BDE8F0876068696800F00C00B0EB72
:10200000810FEFD1306800F00700B8420BD930687B
:1020100020F0070038433060306800F00700B84215
:1020200001D00120E5E72878400705D56068E96818
:1020300020F4E060084360602878000706D56068F7
:10204000296920F4605040EAC100606000F038F86F
:102050006168084AC1F30311515CC8400649086031
:1020600006480068FFF7F8FE0020C2E700200240A3
:1020700000100240E83B0008140000200C00002083
:102080000448054900684968044AC1F30221515CCB
:10209000C84070471400002000100240F83B0008C0
:1020A0000448054900684968044AC1F3C221515CEB
:1020B000C84070471400002000100240F83B0008A0
:1020C00012A185B00FC98DE80F0014A0144A006852
:1020D00004905168134801F00C03042B10D0082B16
:1020E0000ED1C1F38343C9031DF803000AD551681B
:1020F00004AAC1F34041515C0A4A5043B0FBF1F0DD
:1021000005B0704708494843FAE700000203040598
:10211000060708090A0B0C0D0E0F10100102000033
:102120000010024000127A0000093D002DE9F84F2E
:10213000040070D02078C04DC00749D06868C0F353
:102140008100012807D06868C0F38100022809D106
:102150006868C00306D52868800339D56068002800
:10216000E7D035E06068B0F5803F0BD010B1B0F536
:10217000A02F11D0286820F480302860286820F42F
:10218000802002E0286840F480302860606890B1C8
:10219000FFF742FE06460AE0286840F480202860E7
:1021A000F0E700BFFFF738FE801B642873D828686B
:1021B0008003F7D50CE0FFF72FFE064605E000BFD1
:1021C000FFF72AFE801B6428F0D828688003F7D424
:1021D00020789A4E80074FF001094FF0000839D55A
:1021E000686810F00C0F07D06868C0F381000228FF
:1021F00009D16868C00306D42868800714D520690F
:10220000012808D110E02069B0B1C6F80090FFF7AE
:1022100003FE074605E00AE1FFF7FEFDC01B0228AA
:10222000C4D828688007F7D52868616920F0F800CD
:1022300040EAC10028600DE0C6F80080FFF7ECFD21
:10224000074604E0FFF7E8FDC01B022823D82868F2
:102250008007F7D4207800072CD57948A169D9B137
:10226000C0F80090FFF7D8FD074604E0FFF7D4FD63
:10227000C01B02280FD8686A8007F7D571484FF451
:10228000FA510068B0FBF1F0009000BF0098411EC9
:102290000091FAD20EE080E0C0F80080FFF7BCFDAC
:1022A000074604E0FFF7B8FDC01B022875D8686A2E
:1022B0008007F7D42078400760D5E8690027C00080
:1022C00008D4E86940F08050E861E869012700F02F
:1022D000805000905C480168C90513D401688346AA
:1022E00041F480710160FFF797FD824606E000BF70
:1022F000FFF792FDA0EB0A0064284ED8DBF800003F
:10230000C005F5D5E06801280AD008B1052813D02A
:10231000286A20F001002862286A20F0040002E008
:10232000286A40F001002862E06841F2883B98B1D9
:10233000FFF772FD82460BE0286A40F00400286235
:10234000EEE700BFFFF768FDA0EB0A0159455AD838
:10235000286A8007F6D50CE0FFF75EFD824605E0AF
:10236000FFF75AFDA0EB0A0159454CD8286A8007AF
:10237000F6D41FB1E86920F08050E861E06988B3C5
:102380006968C1F38101022944D00228C6F860803F
:1023900004D0FFF741FD044638E034E0FFF73CFD90
:1023A000074604E0FFF738FDC01B02282BD8286839
:1023B0008001F7D4206AB0F5803F05D16868A16834
:1023C00020F4003008436860D4E9080108436968D4
:1023D00021F4741108436860C6F86090FFF71CFD93
:1023E000044606E025E000BFFFF716FD001B0228AB
:1023F00009D828688001F7D51BE000BFFFF70CFD66
:10240000001B022802D90320BDE8F88F286880014C
:10241000F4D40EE00128F7D06868226A00F4803115
:10242000914204D1616A00F47010884201D0012009
:10243000EAE70020E8E70000001002400000424206
:1024400080044242140000200070004010B5401E7D
:10245000B0F1807F01D3012010BD4FF0E024606116
:102460000F21601700F0B1FF0020A061072020615C
:10247000002010BD7047704770B590F83C20012ACD
:1024800023D0012480F83C40022280F83D200368DC
:102490005A689D6822F070060A6832435A600C4BF5
:1024A00002689A4205D0B2F1804F02D0094B9A429D
:1024B00004D1496825F080031943916080F83D40BC
:1024C000002180F83C10084670BD022070BD00005D
:1024D000002C01400004004090F83D10012901D07B
:1024E00001207047022180F83D10006809498842A8
:1024F00005D0B0F1804F02D00749884204D18168ED
:1025000001F00701062903D0016841F001010160D3
:1025100000207047002C01400004004070B51E4CA4
:102520002078010612D41D4D410610D540F08000E0
:1025300020700421284600F04FFA60802868016A64
:1025400021F0A00101622868016A016270BD0021CA
:102550006180402020702868026A41F211131A42FB
:1025600007D1026A9B101A4203D1026822F00102CD
:102570000260286841622868016A21F0A0010162B6
:102580002868016A41F0200101622868016841F071
:102590000101016070BD0000000000202400002047
:1025A0002DE9F041054690F83C000C46012836D054
:1025B000012085F83C008AB3042A42D02868082A02
:1025C00051D0D4E90023E168066A26F480560662F9
:1025D000C669076A26F4407646EA03234FF6FF767B
:1025E00006EA013123F4704319434FF4005627F4EF
:1025F000005306EA02321A43C16102622868C169C7
:1026000021F44061C1612868C169A26841EA0221E0
:10261000C161002085F83C00BDE8F08101E00220A6
:10262000FAE7D4E90012E368286800F04BFD286857
:10263000816921F00C01816128688169A2681143D8
:102640000FE0D4E90012E368286800F063FD286811
:10265000816921F44061816128688169A26841EA49
:1026600002218161D5E7D4E90027267B016A21F4A4
:1026700080710162C169036A21F00301394321F0CD
:10268000F00731074FF4007647EA116123F4007335
:1026900006EA02221A43C16102622868C16921F078
:1026A0000C01C1612868C169A2681143B0E710B587
:1026B000040003D094F83D0010B107E0012010BDE4
:1026C000002084F83C00204600F01EF8022084F828
:1026D0003D00211D206800F0B9FC012084F846006F
:1026E00084F83E0084F83F0084F8400084F84100FC
:1026F00084F8420084F8430084F8440084F84500DC
:1027000084F83D00002010BD00B585B00021009187
:102710000191029103910068B0F1804F1ED11048E1
:10272000C16941F00101C161C16901F00101049178
:10273000816941F0040181618069694600F004000B
:102740000490022000900748FFF780FA002211460B
:102750001C20FFF7CDFB1C20FFF7BCFB05B000BD24
:10276000001002400008014010B5044651B1042990
:102770000DD0082910D094F8410094F84520012884
:1027800011D10EE094F83E0094F84220F7E794F857
:102790003F0094F84320F2E794F8400094F8442076
:1027A000EDE7012A01D0012010BD022051B104291A
:1027B00011D0082918D084F8410084F845000C296C
:1027C0001BD133E084F83E0084F842002068C268E0
:1027D00042F0020210E084F83F0084F843002068D1
:1027E000C26842F0040207E084F8400084F8440024
:1027F0002068C26842F00802C2600122206800F02E
:1028000053FC0D492068884205D0B0F1804F02D0BA
:102810000A49884204D1816801F00701062903D0E2
:10282000016841F001010160002010BD2068C2680C
:1028300042F01002E0E70000002C014000040040DC
:1028400070B50446006801694FF00005C943890767
:1028500015D4C168C943890711D4E91E016101205B
:102860002077206880698007204602D0FFF756FE57
:1028700004E000F098F8204600F096F825772068EC
:102880000169C943490717D4C168C943490713D42B
:102890006FF004010161022020772068806910F444
:1028A000407F204602D0FFF739FE04E000F07BF8BD
:1028B000204600F079F8257720680169C9430907A7
:1028C00016D4C168C943090712D46FF00801016129
:1028D000042020772068C0698007204602D0FFF7D7
:1028E0001DFE04E000F05FF8204600F05DF825775B
:1028F00020680169C943C90617D4C168C943C9061C
:1029000013D46FF010010161082020772068C0699E
:1029100010F4407F204602D0FFF700FE04E000F0F4
:1029200042F8204600F040F8257720680169C94345
:10293000C90708D1C168C943C90704D1891E01610B
:10294000204600F033F820680169C943090609D41C
:10295000C168C943090605D46FF0800101612046B2
:10296000FFF788FD20680169C943490609D4C16899
:10297000C943490605D46FF040010161204600F0CB
:1029800040F820680169C94389060BD4C168C9436E
:10299000890607D46FF0200101612046BDE8704030
:1029A000FFF769BD70BD704770470000094908789E
:1029B000020606D4420604D5C243920602D0401C49
:1029C0000870704740F0800008704FF6FF70488034
:1029D00070470000000000200246002041B1042999
:1029E00009D008290AD00C2901D11068006C704761
:1029F0001068406B70471068806B70471068C06B40
:102A0000704770477047704710F83D1F4078084383
:102A100070470000F8B5026804461068D168536931
:102A200010F00F0F4FF0000553D003F0010601F432
:102A3000907737435FD0C20705D0CA0503D5226C13
:102A400042F001022264420705D5DA0703D0226C66
:102A500042F002022264820705D5DA0703D0226C15
:102A600042F004022264020707D501F0200232433B
:102A700003D0226C42F008022264226C002A34D077
:102A8000800604D5880602D5204600F07EFB20682B
:102A90004069216CC0F38010090700D430B3204690
:102AA00000F05BFB2068416949061BD5416921F0B4
:102AB00040014161A06BA8B158494163A06BFFF789
:102AC00067F8002811D0A06B416B01B0BDE8F04061
:102AD000084783060FD58B060DD52046BDE8F84084
:102AE00000F053BB2046FFF78EFFF8BD2046FFF7EE
:102AF0008AFF2564F8BD266B2023012E52D1C6061D
:102B000050D5CE064ED510685068009050694006EA
:102B10002AD5A16B086840680004000CEAD0A68D95
:102B20008642E7D9E0858869202818D0D06820F44B
:102B30008070D0602068416921F001014161206806
:102B4000416921F04001416184F83E3025632068ED
:102B5000C16821F01001C160A06BFEF7F6FFA08DE7
:102B6000E18D401A81B219E0A08DE18D401A81B249
:102B7000E08D0028BED00029BCD0D06820F4907031
:102B8000D0602068426922F00102426184F83E3040
:102B900025632068C26822F01002C2602046FFF759
:102BA00031FFF8BD05062BD50D0629D594F83D005B
:102BB0002128F6D1A068B0F5805F01D12069B0B1BD
:102BC000206A411C2162216800784860E08C401E28
:102BD0000004000CE084E4D12068C16821F0800189
:102BE000C1602068C16841F04001C160F8BD206A41
:102BF0000088C0F308005060206A801C2062E5E76E
:102C00004006F3D54806F1D5D168204621F04001B1
:102C1000D16084F83D3000F040F9F8BD4B31000838
:102C200070B5040004D094F83D00002510B106E012
:102C3000012070BD84F83C50204600F023F8242089
:102C400084F83D002068C16821F40051C16020462D
:102C500000F0F6FA2068016921F4904101612068D2
:102C6000416921F02A0141612068C16841F40051A5
:102C7000C1602564202084F83D0084F83E000020D7
:102C800070BD000030B585B000240094019402941A
:102C900003940068184988422CD11848816941F48E
:102CA00080418161816901F480410491816941F031
:102CB000040181618069124D00F0040004904FF41A
:102CC000007000900220019003200390694628467E
:102CD000FEF7BCFF2815CDE900046946284602949A
:102CE000FEF7B4FF002211462520FFF701F9252049
:102CF000FFF7F0F805B030BD003801400010024089
:102D00000008014090F83E30202B0ED159B152B14D
:102D100090F83C30012B08D0012380F83C30002390
:102D2000036300F0E9BA01207047022070470000F9
:102D30002DE9F041254C00254FF4807621784FF69F
:102D4000FF77FF290BD3257031462148FDF7A4FA00
:102D50003B460A221FA1224800F046F82EE01C48FC
:102D60006278204B4254491CCAB222700178632910
:102D700002D02B2905D009E041786D2906D11D70BC
:102D800004E041786D2901D101211970104410F837
:102D9000011C0A2912D110F8020C0D280ED13B4655
:102DA0000B490F4800F020F80D48FFF72DFE2128B1
:102DB000FAD0257031460648FDF76EFABDE8F041BD
:102DC00002490122491C0648FFF79CBF040000206D
:102DD0006C000020CAFDBEDDD2E7B3F600000000A3
:102DE0006C010020200000202DE9F843044690F8F3
:102DF0003D001F4616460D4620284CD1C5B1BEB138
:102E000094F83C00012846D0012084F83C004FF0A3
:102E10000008C4F84080212084F83D00FEF7FCFF44
:102E2000A6848146E684A068B0F5805F03D004E004
:102E30000120BDE8F883206928B12E465FF0000527
:102E400084F83C800EE00026FAE78021204600F05E
:102E50006EFAA0B9AEB116F8010B21684860E08C9B
:102E6000401EE084E08C4B464FF0000200970028A3
:102E7000EBD14FF04001204600F059FA30B1032069
:102E8000D7E735F8020BC0F30800E6E7202084F806
:102E90003D000020CDE70220CBE7704710B50A4C7B
:102EA000012220212046FEF7B1FF00214FF43460BB
:102EB00000BF491C8142FBD320460022BDE81040E0
:102EC0002021FEF7A3BF000000080140FEE700003C
:102ED00030B585B000241448009401940294039402
:102EE000816941F020018161816901F02001049133
:102EF000816941F00401816180690C4D00F004009A
:102F00000490002220212846FEF780FF2020009018
:102F10000120CDE901040320039069462846FEF70D
:102F200095FE05B030BD00000010024000080140D1
:102F300010B586B0002418480594049400940194B8
:102F400002944FF08041039401604721C0E90114CD
:102F50004FF6FF71C0E903148461FFF7A8FB08B1C5
:102F6000FEF7F1FD049404A90B480594FFF784FAD9
:102F700008B1FEF7E8FD0120CDE9004002940422EB
:102F8000694605480394FFF70BFB002801D0FEF7C4
:102F9000DAFD06B010BD0000240000200C4810B57A
:102FA0000A4901604FF4E1314160002181600C2247
:102FB000C160C0E904128161C161FFF731FE0028E0
:102FC00003D0BDE81040FEF7BEBD10BD0038014083
:102FD0006C010020FEE7FEE770477047FEF722BF56
:102FE00030B58FB028216846FDF756F914210AA89C
:102FF000FDF752F901210804CDE9001000240294E4
:1030000002250491CDE907504FF4E010099068467D
:10301000FFF78CF808B172B6FEE70F20CDE90A057C
:103020004FF48060CDE90C4002210AA80E94FEF70F
:1030300091FF002801D072B6FEE70FB030BD704797
:103040000148FFF7FDBB00002400002070B50268B6
:10305000134B144C4FF08046984203D0B04201D03D
:10306000A04203D122F070054A682A43984203D057
:10307000B04201D0A04203D122F44074CA68224376
:103080004C6922F08002224302608A68C2620A68A8
:103090008262984201D1096901630121416170BDD9
:1030A000002C01400004004010B501F01F03012175
:1030B000046A99408C430462016A9A401143016298
:1030C00010BD000070B5046A24F001040462846934
:1030D000056A0E4EB04205D0B0F1804F02D00C4EC2
:1030E000B04203D124F00304144301E044F001048E
:1030F0001A0724F0F00444EA126225F00A0301F0F2
:103100000A0119438261016270BD0000002C014078
:103110000004004030B5046A24F01004046284699D
:10312000056A24F4407444EA022222F470444FF603
:10313000FF7202EA03322243A02425F0A00304EA2E
:10314000011119438261016230BD10B5406A00214E
:10315000C185C184FFF757FC10BD0168CA6822F41D
:103160009072CA6001684A6922F001024A61016BEB
:10317000012904D10168CA6822F01002CA60202126
:1031800080F83E1000210163704708B590F83E10AA
:10319000222901D0022008BD82684FF480539A4250
:1031A00001D1016921B1816A9A421BD04AB10AE07A
:1031B0000268816A5268C2F308020A80816A891C27
:1031C00008E0026972B10268526802F07F020A7078
:1031D000816A491C8162C18D491E0904090CC1859F
:1031E00003D019E002685268F1E70168CA6822F06A
:1031F0002002CA600168CA6822F48072CA6001684D
:103200004A6922F001024A61202180F83E10016BD8
:10321000012903D0FFF78CFD002008BD00210163C8
:103220000168CA6822F01002CA6001680A68D20602
:1032300002D50A6849680091818DFFF7E3FBEBE74F
:1032400070B5044600680169E26821F440511143F9
:1032500001612169A0680843616908432168CA685F
:1032600041F20C639A430243CA6020684169A26933
:1032700021F44071114341611E492068884202D106
:10328000FEF70EFF01E0FEF7FBFE00EBC00101EBD5
:103290000012606864218000B2FBF0F3B3FBF1F32D
:1032A0006FF018067343B2FBF0F5B2FBF0F605EBD6
:1032B0008305322303EB0515B5FBF1F5B6FBF1F6FB
:1032C00005F0F00505EB0615B2FBF0F6B2FBF0F0E9
:1032D000B0FBF1F06FF01802504306EB800003EBF7
:1032E0000010B0FBF1F0216800F00F002844886066
:1032F00070BD00000038014081628285C2850021D6
:103300000164222280F83E2080F83C100168CA68DF
:1033100042F48072CA6001684A6942F001024A615F
:103320000068C16841F02001C160002070472DE9AC
:10333000F041984617460E460446069D1DE0681C5F
:103340001BD02DB1FEF768FDA0EB0800A84214D9F0
:103350002068C16821F4D071C1602068416921F002
:1033600001014161202084F83D0084F83E000020E6
:1033700084F83C000320BDE8F0812068006836EA4C
:10338000000004D00020B842D9D00020F3E701208B
:10339000F9E700000148FFF73DBB00006C01002089
:1033A000FEE7490050EAC12018BF04204A0D18BFAB
:1033B00040F0010040F2FF72B2EB515F08BF40F0F5
:1033C0000200012808BF052070470907090E0028E0
:1033D00004DB00F1E02080F80014704700F00F00DB
:1033E00000F1E02080F8141D704730380A2801D21F
:1033F00001207047002070472DE9F0411F4D002447
:103400002878010637D51E4980061F4E09881F4FB0
:1034100001EB90201B49DFF87880097811B1012970
:1034200013D026E000F054FA32463B4600F064FA2E
:103430000022434600F060FA0022164B00F0F0F83C
:1034400000F0BCF8044614A011E000F041FA324646
:103450003B4600F051FA0022434600F04DFA0022AC
:103460000F4B00F0DDF800F0A9F804460DA000F0C5
:103470005DF8002028702046BDE8F08100000020A3
:10348000020000202000002052B81E85EB69754024
:103490000000594080843E41636D0D0A0000000029
:1034A00084D7A7416D0D0A00FEF7C4FCFFF798FD15
:1034B000FFF70EFDFFF73CFDFFF770FD1148FFF72A
:1034C0000BF804210F48FFF74FF90E480068C16858
:1034D00041F00101C1600CA000F028F801220D4963
:1034E0000D48FFF70FFC6420FEF79EFBFFF7D6FCAC
:1034F000FFF782FF00F0FEFA02460B4607A000F03D
:1035000015F8F0E7240000207374617274206F6B6B
:103510000D0A0000050000206C0100206469732082
:103520003D20252E32660D09000000000FB40B4827
:1035300070B5094C05AA251F22600499FCF79AFE74
:1035400082B22A8000202060642304490448FFF7E7
:103550004BFC70BC5DF814FB1C000020B001002087
:103560006C01002010B500290AD00878002807D087
:1035700005487844FDF7D6FE002801D0002010BD94
:103580000248784410BD0000AA070000A20700000E
:1035900010B500290AD00878002807D005487844DB
:1035A000FDF7C0FE002801D0002010BD024878447D
:1035B00010BD00009A0700009207000021F00042B1
:1035C000A2F16052B2F5801F01F0004328BFD2F192
:1035D0007F6C0BD95FEA001C43EAC20242EB5070D9
:1035E00018BF704728BF20F001007047B2F5801F58
:1035F000BCBF184670474FEA410C1CF5001F02D2B1
:10360000084600F0E8BA70B500F020FA0000008922
:10361000FFF7F6BF4FF00040A0F5800070470000B4
:103620002DE9C04130B4DFF8A0C23CEA111418BF44
:103630003CEA131400F0EC8081EA03051CEA111443
:1036400044EAD57418BF1CEA131500F0C780A4EB38
:1036500005044FF0004545EAC12145EAC32341EA8C
:10366000505143EA525304F17F74994204F50034F7
:103670004FEAC0204FEAC22208BF904200F09C806F
:103680004FEA13650FF24016765D4FEA134506FBCD
:1036900005F7C7F1807706FB07F74FEAD737A7FB97
:1036A00003687642C8F58038A7FB06CE38BFA8F17C
:1036B000010807FB08E64FF0000EA6FB028CE6FBB4
:1036C00003CEDCF1000CCEF1004E38BFAEF1010E9E
:1036D000A6FB0C584FF000074FF00005E6FB0E87E5
:1036E000A1FB08C6A0FB07CE16EB0E0645F10005B0
:1036F000E1FB076515F1E04E7EBFA4F580345FEA7B
:1037000046066D4116F1800745F100054FEA17277F
:103710004FEA066647EA0567A6F1DE46B6F1805F26
:103720004FEA15251FD9384624F0010C05EBC4716A
:10373000BCF1FE6F01EB0C1102D8F0BCBDE80081BA
:1037400024425CBF01F5801E9EEAC47F02D4F0BC17
:10375000BDE80081244238D4F0BCA1F1C041BDE8ED
:10376000004100F0C1B94FEAD22242EA43524FEA87
:10377000D323A7FB02864FEAD02040EA415007FB43
:1037800003661EEA0E0F4FEAD12105FB026658BF01
:10379000A6EB0056B6EB00564FEA520E4EEAC37E39
:1037A00018EB0E0E56EB530EBDD518EB02085E411A
:1037B0007F1C55F10005B6E74FF480154FF0000768
:1037C0004FF000064FF00008ADE7F0BC4FF00000EE
:1037D00001F1C04101F00041BDE8008111EA0C1F78
:1037E0000CEA131500D00CE013EA0C1F00F0258042
:1037F0004FF00000F0BC81EA030101F00041BDE898
:103800000081F0BCBDE8004181EA030100F06CB921
:10381000F0BCBDE8004170B500F018F9097EFC3E2F
:1038200000F007B881EA03014FF0000001F0004109
:10383000704781EA030100F057B9F0BCBDE80041D0
:103840004FF0000021497047FFFDFBF9F7F5F4F256
:10385000F0EEEDEBE9E8E6E4E3E1E0DEDDDBDAD82B
:10386000D7D5D4D3D1D0CFCDCCCBCAC8C7C6C5C489
:10387000C2C1C0BFBEBDBCBBBAB9B8B7B6B5B4B3A0
:10388000B2B1B0AFAEADACABAAA9A8A8A7A6A5A48B
:10389000A3A3A2A1A09F9F9E9D9C9C9B9A9999984F
:1038A0009797969595949393929191908F8F8E8EF2
:1038B0008D8C8C8B8B8A898988888787868585847F
:1038C00084838382828181800000FF070000F87F6B
:1038D000B0FA80F310FA03F10AD0C3F11D0303F527
:1038E00080634FEA41504FEA035202EBD121704707
:1038F0004FF0000070470000DFF848C170B51CEAC7
:10390000111E1EBF1CEA13159EEA0C0F95EA0C0F40
:1039100000F06F8081EA030423EA4C134EEAD47E60
:1039200021EA4C1141F4801143F48013AE44A1FB11
:10393000024CA0FB0365AEF17F7E361955EB0C05FA
:10394000A1FB034C4CF10003A0FB021C16EB0C0680
:10395000654153F10003094218BF46F0010613F414
:10396000007F0BD14FEA03314FEA0530340341EABF
:10397000155140EA16506FF003020AE04FEAC321E6
:103980004FEAC520F40241EA555140EA56506FF023
:10399000020202EB2E4201EB025585EACE710AD0FB
:1039A0005FEA440C18BF24F0004450F1000041F1DC
:1039B000000120EAD47040F2FE7C624500D270BD66
:1039C000A84214BF4FF080444FF04044002E08BF7F
:1039D0000024BEF1806FA8BFA1F1C041BDE87040D6
:1039E00080F282804FF0000001F1C04101F00041FF
:1039F00070479EEA0C0F0CEA131518BF95EA0C0FDE
:103A000006D04FF0000081EA030E0EF0004170BDB9
:103A100000F01CF88900013E00F007B800F009B87A
:103A20004FEA430C5FEA5C5C08D081EA030100F0D6
:103A30005BB84FEA410C5FEA5C5CF6D14FF00000E6
:103A4000014970470000FF070000F87F0EF1020EE9
:103A50002EF0030E5EF8046B364205D4012A43EBC8
:103A6000030515F5001F12D8012841EB010C1CF5C8
:103A7000001F0CD80ED14FEAD17C15F5001F0CEBBE
:103A80004C0C0CF1020C08BF4CEBD37C04E04FF063
:103A9000080C01E04FEAD37C0CEB4C0526FA05F646
:103AA00006F00706B6F1040C06D20EEB860CBDE854
:103AB00070404CF0010C6047DFE80CF0090B02028B
:103AC0004FF000414FF00000A1F5002170BD1946F4
:103AD0001046012851EB010418BFD4F5001484BF2F
:103AE000002001F0004170BD0808A0F500114FEA68
:103AF0003101704743004FEAD30C4FEA3C0C43407E
:103B00001FBF40070CF1605113F0FE4F70471CF0CF
:103B1000006F03D100200CF0004170470CF000430F
:103B200043EA507010B540EACC0000F00EF800BF38
:103B3000000000924FEA0001FFF7D6BF4FF00041AE
:103B40004FF00000A1F5002170470EF1020E2EF09B
:103B5000030E5EF8044B244204D44FEA4102B2F152
:103B60007F4F11D84FEA4003B3F17F4F0CD80ED1ED
:103B70004FEAD07CB2F17F4F0CEB4C0C0CF1020CF5
:103B800008BF4CEBD17C04E04FF0080C01E04FEA99
:103B9000D17C0CEB4C0324FA03F404F00704B4F1D9
:103BA000040C06D20EEB840CBDE810404CF0010C66
:103BB0006047DFE80CF0070802024FF00040A0F574
:103BC000800010BD0846420018BFD2F1807288BF45
:103BD00000F0004010BDFF2141EAD050C005704701
:103BE000FCF7ADBFFDF7E2B80000000000000000E8
:103BF0000102030406070809000000000102030493
:103C00000000000000000000303132333435363718
:103C10003839414243444546403058003031323310
:103C20003435363738396162636465664030780010
:103C30000400000800000000000000020001000075
:103C40001030313233343536373839616263646568
:103C50006678700030313233343536373839414286
:103C6000434445465850000002400000000000A0B8
:103C70000000000005400000000000C80000000037
:103C80000C4000000000409C0000000019400000B3
:103C90000020BCBE0000000034400000BFC91B8EE5
:103CA00000000004B5400000504BCFD06607E2CFC3
:103CB000010000006C4100003E8251AADFEEA734F3
:103CC00001000000D9420000DCB5A0E23A301F97A5
:103CD000FFFFFFFFB4450000FD25A0C8E9A3C14FC9
:103CE000FFFFFFFFFF3F000000000080000000001A
:103CF000FF3F00000000008000000000483E000878
:103D00000000002024000000280100086C3E00088C
:103D100024000020EC080000440100081C00000002
:103D200043000000F8FFFFFF0C0000000E00000041
:103D30000F0000002E0000001001000043000000F2
:103D4000F8FFFFFF004040404040404040404141BC
:103D50004141414040404040404040404040404060
:103D600040404040400502020202020202020202FA
:103D700002020202022020202020202020202002F7
:103D80000202020202029090909090901010101087
:103D90001010101010101010101010101010101023
:103DA00002020202020288888888888808080808B7
:103DB0000808080808080808080808080808080883
:103DC00002020202400000000000000000000000AB
:103DD00000000000000000000000000000000000E3
:103DE00000000000000000000000000000000000D3
:103DF00000000000000000000000000000000000C3
:103E000000000000000000000000000000000000B2
:103E100000000000000000000000000000000000A2
:103E20000000000000000000000000000000000092
:103E30000000000000000000000000000000000082
:103E40000000000000000000000000000000000072
:103E50000100000010000000000000000024F40039
:0C3E600000000000000000000000000056
:04000005080000ED02
:00000001FF
